:020000020000FC
:100000000263E702172702174002176D02177F02EB
:1000100017EA02187502190702191802192B02199A
:100020003E02194A02195702196302196F02198810
:100030000219B90219E5021ACD02000002000002FD
:10004000573B02411E02000002000002442702004A
:1000500000020000024CEA025A43023F43025A885F
:100060000256800260DE0258D802000002634D0290
:100070006364025D98024F960200000258890200F4
:10008000000262FC026004025EB202619C026179BD
:10009000026334026107025CB2024369025839020A
:1000A00024E3025926025093025F1F904102E03080
:1000B000E505E054FEF022904103E0540FFFBF0835
:1000C00007904102E020E706123E98020863123EC4
:1000D00085900E41E02402605214603114B40B008C
:1000E00040030208639000ECF828287302015402D0
:1000F00001D702086302025C02086302036502037F
:100100008502086302080502080F02084E900E409F
:10011000E064217013900E44E0700D123EE4123E34
:10012000A0123E7A123F2122020863900E40E06442
:10013000A1701E306104F002085CA263E433FFA2E8
:1001400062E4332FFFA267E4332F900E40F00208E1
:100150005C020863900E40E0247F601014601E244F
:1001600002706A907200E0900E408058900E44E059
:100170007008900E40F0A3F08056020863900E4481
:10018000E014601E2481600824FE60282482703AF6
:100190007881E630E0047F0180027F00900E40EF1E
:1001A00080227881E630E2047F0180027F00900E99
:1001B00040EF80107881E630E4047F0180027F0008
:1001C000900E40EFF0E4A3F080060208630208639B
:1001D0009041037402F022900E40E07019900E429C
:1001E000E0B4010F907200E054FDF0904107E0543C
:1001F000FBF022020863900E40E06402705B900EF8
:1002000042E07052900E44E0146020248160082483
:10021000FE602C2482703C7881E654FEF690410109
:10022000E04402F0E054FEF00203617881E654FB02
:10023000F6904101E04408F0E054FBF002036178DD
:1002400081E654EFF6904101E04420F0E054EFF0F5
:10025000020361020863020863020863900E40E033
:100260006003020311900E42E06402600302030E79
:10027000900E44E0600302030EA3E0700302030E3D
:10028000E0C39405400302030B903C5074F3F090DC
:100290000E45E0B4040312C01E903C5074FF123EA1
:1002A000A0904102E0544170F8900E45E024FE60B9
:1002B0001214601714601C2403704E904201748362
:1002C000F080469042017485F0803E9042017407B0
:1002D000F0803678007C007D017BFF7A3879D37E10
:1002E000007F35121ACD306D09903C5074F2F01237
:1002F000C01E904104E020E1F9123E7A7435123FAD
:100300002B9042017409F080E980FE020863020824
:1003100063900E40E064027045900E42E0703C90A5
:100320000E44E01460142481600824FE601B2482C3
:1003300070267881E64401F680277881E64404F649
:10034000904101E04404F080187881E64410F69072
:100350004101E04410F080090208630208630208CA
:1003600063123EA122123EA1904102E0544170F876
:10037000900E42E0904100F0904107E054FDF0E41F
:10038000907204F022306D449090107401F09090BF
:1003900016E030E31678A1E6F51512C0457F02128B
:1003A000C048909016E054F7F0801C78A1E625E054
:1003B00024A2F582E43472F583E0FEA3E0FFBEFFE1
:1003C00006BFFF0312C03CE4909010F0900E43E093
:1003D00024FE606D14700302045924FD6011146042
:1003E0006024F87003020797240E60030207D530DB
:1003F0006B15123EB8500B7B1012086B7006C26B67
:100400008002C26B852115306B117A007900123E93
:10041000DC123E7D9072097404800B123EA9903864
:1004200029E493907209F090720A7412F0900E43CE
:10043000E0640660030207D890720A740AF00207AB
:10044000D890720B74FFF0A37438F07409123F0651
:1004500090720A7420F00207D8306B15123EB85023
:100460000B7B1212086B7006C26B8002C26B852177
:1004700015306B0C123ED87404F0A37400F08003A6
:10048000123EA9900E42E01219B904A90004B70166
:1004900004D10204EF03051904054780059982067B
:1004A000268307818600000794123EA990382B12FC
:1004B0003F0E90382C8059306B0C9072097416F0F6
:1004C0009004020207CB90382D123F0E90382E80F8
:1004D0003F306B10900402E02416907209F09004F3
:1004E000030207CB90382F123F0E90383080213016
:1004F0006A157A047980123EDC7404F07480123F2D
:10050000069004800207CB903831123F0E903832AB
:10051000E49390720AF00207D89004007404F0A3E8
:1005200014F090720FE0900402F090720EE09004CC
:1005300003F0123ED87404F0A37400123F079072C7
:100540000A7404F00207D8123F35248E601424FD8B
:10055000601724DB601A24187020123E53125C7757
:1005600080117F021262A4800A7F021244DC8003A1
:100570001226C8907220EFF08009124D75C25312F6
:100580003F3C22C253907220E0B40303024D751227
:100590004D759072207405F022123F35248D605005
:1005A00024F0604324ED605E24FB604C24A360676C
:1005B00024FE605A24D06003020756900E47E030B4
:1005C000E1127E027F007D007B017A04790012191E
:1005D000E50206D6900E45E0907224F0900E46E0BB
:1005E000907223F0020727123E53125F8902074FD1
:1005F0007F02125B8402074F900E45E0900401F0E9
:10060000125E7B02074FE4FF1236CE02074F123E06
:10061000F5125B0902074F9000747451F0123EF519
:100620001261E202074F123ED0E4907221F0A3F073
:10063000C3907221E0940250447F84125485EF608D
:100640003C900E45E0FF907221E0FCA3E0FD240009
:10065000F58274043CF583EFF0900E44E0FF7401E2
:100660002DF58274043CF583EFF01262C290722281
:10067000E02402F0907221E03400F080B3C3907265
:1006800021E09402500302086A7F85125485EF70BE
:100690000302086A124D75EF700302086A7F811227
:1006A0005485EF700302086A123F35248F700302ED
:1006B000073424FD700302073B24F3606F24E870C5
:1006C0000302074224FC700302074C24A86078242C
:1006D000CB6003020756900E45E05407F508A3E0EF
:1006E000F509907224E0F50A907223E0F50BE4F529
:1006F0000C900E45E054F0F50DE030E316123E6C20
:10070000250BF50BEE350AF50AED3509F509EC3543
:1007100008F508E50D7003750D019072207480F0E6
:1007200012C006EF30E734123F3C802F123E5312C6
:10073000612E801B7F02125B4780147F02124BD117
:10074000800D1230528008123B4B8003124B4190B7
:100750007220EFF08005123F3C8012907220E0B4CE
:1007600003047F0080027F05907220EFF0C25312D5
:100770003ED0125FBEEF600302086A90722004F060
:1007800022907220E0900E40F0E4907220F09041B0
:100790000304F022020863306C38907000E0640DAE
:1007A0007030A3E06406702AA3E0B40525A3E0B48A
:1007B000062090700AE0601A90720B74FFF0A37428
:1007C00039F0A37408123F07900E46E090720AF0C9
:1007D0008006020863020863900E47E07015900ED1
:1007E00046E0FF90720AE0D39F4008900E46E090EA
:1007F000720AF090720AE07004123ED022900E430A
:10080000E0FF023306907204E0900E40F0804D123B
:100810003EE4F0900E42E0B4011A9072047401F0CC
:10082000904107E04402123EA0E4909001F09090C5
:100830000704F022900E42E07012907204F0904192
:1008400007E054FD123EA090900180138015900E99
:1008500044E07006900E40F08002800790410374DF
:1008600001F022904101E04401F0227D017C001260
:10087000C00FEF4E22C26DC26912605E9080097493
:10088000ACF0E47892F6122188C259E4908040F0EE
:1008900012227D1262E012221590800AE04410F0CC
:1008A00090801AE04401F0908005E030E7F91221D1
:1008B000287430F0E4F516908005E030E7F9908078
:1008C000147450F0E4908006F0908005E030E0F978
:1008D000908067E030E018E51670110516908000F2
:1008E0007405F0E412212D74E0F080CB122181E434
:1008F000FD7F6E1242A9E4F516906E00E0B4500D33
:10090000A3E0B450089072E57438F080069072E568
:100910007478F0906E00E064986005E06445701CA7
:10092000751601906E02E030E36E122284D39404B7
:100930005005E054077061431602805C906E00E041
:1009400064EC7040751604906E02E030E31C1222D5
:1009500084C39404401443160890801AE030E00ADF
:10096000122284FFBF050343161090801AE030E086
:1009700027906E01E07021A3E0701DA3E070194381
:1009800016108014906E00E0B4AD0D431620906EEA
:1009900002E030E303431608E47894F69072E5E051
:1009A000FF7894E6C39F4003020EF312227D9080ED
:1009B0000AE05490F090800974AC122214908005E3
:1009C000E030E7F91221DFE51630E426908005E0FB
:1009D00030E7F912216E7410F07E007F087D007BF5
:1009E000017A8079801219E512221D908005E0308D
:1009F000E0F97894E6FF124AAF908005E030E7F91D
:100A0000E51630E10690800074A2F0E51630E306AA
:100A100090800074DAF0E41221701221C27430F078
:100A20007894E67014908005E030E70D7892E63017
:100A3000E10778947678020EF37522107523007F13
:100A400010122190908005E030E7F9E5165403601C
:100A5000109080007405F0E49080011221C274E0CF
:100A6000F07891761C12228B122292908005E03051
:100A7000E7F9020E667891E6167003020EED90809B
:100A800005E030E0F9908067E030E003020EED9081
:100A9000800BE020E107908005E030E10D1222920A
:100AA000908005E030E7F9020E66122299E0B40D5D
:100AB000C4A3E0B406BF122299A3A3E0B405B61202
:100AC0002299A3A3A3E0640670ABE52324041220BB
:100AD00088643070A0E52324071220886451600ADE
:100AE00090900AE030E403020EEAE523240D122080
:100AF000886006547790900EF0E523240E1220882B
:100B00006006C313FF125C3BE523240C122088FF10
:100B1000600CE4909002F0EF1222601222A0E52314
:100B200024101220889073F5F0122084B40129AAB1
:100B300022A9237B01C002C00178007C707D01D016
:100B400001D0027E027F00121ACD124369EF7003BA
:100B5000020EEDD26D020DD5122084FF7003020D3E
:100B6000D5E52324111220887005EF64047033AE9C
:100B700008AF09AA22A9237B01C002C00178007C2A
:100B8000147D01D001D002121ACD9073F67414F0C6
:100B9000A37400F0E523241E122088FEA3E0FF12B8
:100BA00021571220846404603EE523241412208817
:100BB000FF125CB2E523241512208890801A60068B
:100BC000E04480F08004E0547FF0E52324201220EC
:100BD00088122254E5232416122088FB7D5012240B
:100BE000E3EF7003020EED12208464026003020C36
:100BF000DF90800BE020E604E030E514750B0190F7
:100C0000800BE030E605750802800B12228B80090C
:100C1000750B02750804750900E523241912208854
:100C2000B40103122164E47891F6E523241612201E
:100C3000881222A74003020CCBE523241712208838
:100C4000FEA3E0FFC39509EE950850048E088F09B6
:100C5000AE08AF09C006C0077891E67F0025E0FE28
:100C6000EF2400F974503EFA7B01C002E523241AF8
:100C7000122088FEA3E0AA06F8AC027D01D002D0C3
:100C800007D006121ACDE523241AF582E43522F5A1
:100C900083E5088509F01217D4E5232417F582E4CB
:100CA0003522F583C083C082C3A3E09509FF058286
:100CB000D5820215831582E09508D082D083F0A3F7
:100CC000EFF07891E50B26F6020C2AE523241912A1
:100CD000208864016003020DC012220D020DC09035
:100CE000801AE04480F09080607401F0E5232417BE
:100CF000122088908064F0E4908092F0E52324181C
:100D0000122088908065F0E47891F6E52324221281
:100D100020881222A7503712222A1220E8908066DB
:100D2000F012222A1220E8FFE6FEE5232411122009
:100D30008875F005A42EF582E435F0F583E582246C
:100D400000F582E5833414F583EFF00680BDE4F509
:100D500008F5091220849073FCB403097450F0A3C1
:100D60007400F08027E522F0A3E523F09073FCE007
:100D7000FEA3E02414F582E43EF583E0FEA3E0FF49
:100D80009073FDE02FF09073FCE03EF0E47891F674
:100D9000E52324191220881222A7501B1221397032
:100DA000069073FCE004F012213970069073FCE0A9
:100DB00004F078910680D990806174FFF0122214BB
:100DC000E523241C122088FEA3E0FF4E6007AA063C
:100DD000A9071219DFE523240A122088FEA3E0D315
:100DE0009413EE94005003020E7FE523240F12208B
:100DF0008878916003F68002761CE523240812208F
:100E000088FF125CB290800BE020E604E030E5142D
:100E1000750B0190800BE030E605750802800B121F
:100E2000228B8009750B02750804750900E52324DF
:100E30000912208890801A6006E04480F08004E067
:100E4000547FF07F05122190E523240A1220881296
:100E50002254AB0B7D501224E3EF701212229290B9
:100E60008005E030E7F9E4908006F0020A75AE08EC
:100E7000AF09A823AC22122178121ACD020A7530CC
:100E80006D6B1220846401705E90719FE0B4510814
:100E9000D2599080407401F0123452E4909002F0E4
:100EA000907192E07004A3E0601D90700CE05470AB
:100EB000909005F0907192E0FEA3E0FF12497290CD
:100EC00090057490F0800690700C12225F1222A0A0
:100ED000907121E0B45102D26990901EE04440F03C
:100EE00012C000E47883F67F01227F002278940606
:100EF00002099C789206E6C3940450030208861205
:100F00002181E47892F61262E0908005E030E7F902
:100F10001221DF908005E030E7F91221287430F0CB
:100F2000908005E030E7F9789206E6C3940440D655
:100F30007F0022E4F521900011E0600A900010E0AB
:100F400020E0037F8322900010E05401900401F020
:100F5000900011E0900400F0909016E05418FFBF4C
:100F6000100F306D0CE4FF12C03F909016E054EF6C
:100F7000F02056432057407888E6600A7987E77862
:100F800086461846601E7F457E407D357C74788598
:100F9000121E6E600F7F427E497D4F7C5378851212
:100FA0001E6E7002D2567885E6600C7988E77887E5
:100FB0004618467002D257306756205853205703C0
:100FC00030564D205D4A206115A262E4332401FFB2
:100FD000E433FE7883E6FDB5070AE4B506067899A2
:100FE00076018025306411907218E07899B4B004CD
:100FF0007610801576028011ED14FF7402A80708A0
:101000008002C333D8FC7899F67899E6FF1250171E
:10101000306B18851520121FAF7B107D017C0012EC
:10102000C00FEF4E7002C26B8520157899E6FFB4B1
:1010300001271220277463F0A37418F0206B0302B9
:1010400010D7900120E064AA60030210D77B017AD8
:1010500001792290720B048059306B61900002E09C
:101060007C002416F9EC3400FAA3E029F9EC3AFAF2
:1010700090720B7401F0A3EAF0A3E9F0EF5414604E
:101080001B900140E0B4AA147A01794290720B746B
:1010900001F0A37401F0A37442F0803B7899E6B4A8
:1010A0000835900120E0B4AA2E7A01792290720BC3
:1010B0007401F0A37401F0A37422F0801A90383305
:1010C000E493907209F07E002429F9EE3438FA1284
:1010D0002027EAF0A3E9F0E4900000F07899E664B4
:1010E0000170372060237888E66405701C18E6B428
:1010F0008F1718E6B4931218E6B4840DE4F0A3F049
:1011000090721CE054FEF080119000007405F0A372
:101110007480F090721CE04401F0306D1174121272
:101120001FF974E1F012C01E12206C6001229004BD
:1011300001E07003021283900400E0900001F0903F
:101140000400E02480602224FD700302120E248338
:101150006003021280E4900002121EEC7480F0A37F
:101160007483F075210702132FE4900002F0306AB7
:10117000227B017A00798090720B04F0A37400F056
:10118000A37480F0E4907209F0900080E090720AFD
:10119000F0801C1220277438F0A37429F0903831A5
:1011A000E493907209F0903832E49390720AF090D0
:1011B000720AE0900003F0E4FF90720AE0FEEFC3D1
:1011C0009E502912202F907209E0FD7C00E92DF934
:1011D000EC3AFAEF29F9EC3AFA121727FD74032FCB
:1011E000F582E43400F583EDF00F80CD900003E04C
:1011F00030E010E004F074032EF582E43400F5834F
:101200007420F0900003E02404F52102132FE490F1
:101210000002F0A37432F074F2121EEFF0A3740512
:10122000F0A37430F0A37435F0A37438F0A37446BF
:10123000F0A37420F0A374F2F07401121FA8740DCF
:10124000121F1E7420F0A3F0A3121F1E74F1F0747D
:1012500002121FA87408122073121EEF12203BE422
:10126000A3F0A374F1121EEC7408F0A37420F0E450
:10127000A3122073A3F0A312203B75213602132F73
:101280007F83229000017480F0A37404F0A37402A1
:10129000F0A3741FF0E4A3F0A3F0A3F0F520122054
:1012A0002F852082758300121740FF74082520F5D2
:1012B00082E43400F583EFF00520E520B420DF3030
:1012C0006B6A305503205603306605E4900001F048
:1012D0007520017899E6FFB401089000237430F07E
:1012E00080383066089000237435F0802D30650812
:1012F0009000237436F08022306408900023743705
:10130000F08017306311EF900023B408057439F0B2
:1013100080087438F08003E4F520E520600E90002A
:10132000207438F0A3742EF0A37430F0752124AF2C
:101330002112534322900012E07895F6A3E0F508BD
:10134000A3E0F509900015E0F50AA3E0F50B788914
:1013500012196F00000000900019E0B45106A3E0DC
:10136000900010F0900010E01219B913CF00148C07
:101370000114940214A20314A50415C30514A806AD
:1013800014AB0714B40814AE0914B70A14BA0B143A
:10139000BD0C14CE0E16341014D11114D412156ACB
:1013A0001316691B16761C168C1D16FD1E17161FAC
:1013B000171C2013D22113D222144B23144B2415B3
:1013C000BD2815C02A15B48015BA81000017240263
:1013D00055BB90800BE054FC788CF690800AE018A6
:1013E000F6900011E018F690001AE090800BB451CE
:1013F000057440F080037420F0E4900011F0125D59
:1014000026788AE6900011F0900010E0B42108A33D
:10141000E0FF122BD9800E12246512636490001134
:10142000E0FF12510E7889A607788CE690800BF0C9
:1014300018E630E0047F0180027F00900011EFF099
:10144000125D26908009E054FD803B90801AE054A4
:1014500080788CF6E0547FF0900010E0B42408A36C
:10146000E0FF122BD9800E122465126364900011E4
:10147000E0FF12510E7889A60790801AE0FF788C61
:10148000E65480FEEF4EF07889E6FF22900011E0EE
:10149000FF022BD9122465126364900011E0FF0251
:1014A000510E026286024E8A024E00024788125D89
:1014B000267F03220262260231B6025DD07895E6CD
:1014C000FF5470FEEF54074E90900E021720023C1E
:1014D00053025CECE5086025E4F521E521C3950B9A
:1014E00040030215671222FD126334E52112243BEA
:1014F0007B01A807FC0D1223CB052180DE1263348B
:10150000E5096056E4F5211224AD505B74022FF911
:10151000EE3400FA7B01C00174002FF582E4340040
:10152000F583E07D00FC7895E6FEED2400FFEE3CBF
:10153000FE74012521F582E43400F583E07C002F60
:10154000FFEC3EA907A807FC0DD0017E007F011229
:101550001ACD74032521F52180AD7895E67800FC3D
:101560007A0079001223C77F0322E5094508602825
:10157000E4F5211224AD5039EF12243BFAA9077B80
:1015800001C002C00178007C000DD001D0021222FF
:10159000F6126107052180DB7895E6FA79007B0178
:1015A000C002C0011224DCD001D0021223CB126190
:1015B000077F032212233F025B090263BA025BC169
:1015C0000259727D001224589000007478F0A374C0
:1015D00004F09000037407F0E4F521AF21124AAF44
:1015E000E52175F004A4AEF02410F50DE43EF50CF1
:1015F000FE7400250DF58274003EF583E521F0743C
:1016000001250DF58274003EF583E509F07402258D
:101610000DF58274003EF583E50AF07403250DF59F
:101620008274003EF583E50BF00521E521C3947833
:1016300040A98052900011E0F521AF211521EF6003
:1016400025AE08AF09E42FFFE43EFAA9077BFFC0EF
:1016500002C0011224DCD001D0021222F61261076E
:101660000508050880D47F032278007C007A707911
:10167000001223C780101224DC7B007A0079007EE0
:10168000017F00121ACD1261077F0322900011E042
:10169000600BD259908040E04401F08009C259901B
:1016A0008040E054FEF0E508B45105AF09125CB289
:1016B000E50A64517044E50B30E00790801AE0447D
:1016C00080F0E50B30E10790801AE0547FF0E50BE5
:1016D00030E20790801AE04401F0E50B30E3079018
:1016E000801AE054FEF0E50B30E4057F0112C0578C
:1016F000E50B30E505E4FF12C0577F03229000118F
:10170000E090800A6006E04402F08004E054FDF0BE
:101710001234527F0322125D5F7F0322E490901205
:10172000F07F03227F8322BB010689828A83E02225
:101730005002E722BBFE02E32289828A83E49322DD
:10174000BB010CE58229F582E5833AF583E022505E
:1017500006E92582F8E622BBFE06E92582F8E222A8
:10176000E58229F582E5833AF583E49322EF8DF053
:10177000A4A8F0CF8CF0A428CE8DF0A42EFE22BC1D
:10178000000BBE0029EF8DF084FFADF022E4CCF811
:1017900075F008EF2FFFEE33FEEC33FCEE9DEC9876
:1017A0004005FCEE9DFE0FD5F0E9E4CEFD22EDF8FC
:1017B000F5F0EE8420D21CFEADF075F008EF2FFF9F
:1017C000ED33FD4007985006D5F0F222C398FD0F87
:1017D000D5F0EA22C5F0F8A3E028F0C5F0F8E582DC
:1017E000158270021583E038F022E88FF0A4CC8BCC
:1017F000F0A42CFCE98EF0A42CFC8AF0EDA42CFCC7
:10180000EA8EF0A4CDA8F08BF0A42DCC3825F0FD05
:10181000E98FF0A42CCD35F0FCEB8EF0A4FEA9F0FE
:10182000EB8FF0A4CFC5F02ECD39FEE43CFCEAA44A
:101830002DCE35F0FDE43CFC2275F008758200EFFA
:101840002FFFEE33FECD33CDCC33CCC58233C582F2
:101850009BED9AEC99E58298400CF582EE9BFEEDAB
:101860009AFDEC99FC0FD5F0D6E4CEFBE4CDFAE47A
:10187000CCF9A88222B800C1B90059BA002DEC8B6E
:10188000F084CFCECDFCE5F0CBF97818EF2FFFEE4A
:1018900033FEED33FDEC33FCEB33FB10D703994003
:1018A00004EB99FB0FD8E5E4F9FA227818EF2FFF43
:1018B000EE33FEED33FDEC33FCC933C910D7059B85
:1018C000E99A4007EC9BFCE99AF90FD8E0E4C9FAE1
:1018D000E4CCFB2275F010EF2FFFEE33FEED33FD6D
:1018E000CC33CCC833C810D7079BEC9AE899400A90
:1018F000ED9BFDEC9AFCE899F80FD5F0DAE4CDFB0E
:10190000E4CCFAE4C8F922EB9FF5F0EA9E42F0E954
:101910009D42F0E89C45F022E8600FECC313FCED1B
:1019200013FDEE13FEEF13FFD8F122E8600FEFC3B3
:1019300033FFEE33FEED33FDEC33FCD8F122E6FC51
:1019400008E6FD08E6FE08E6FF22E6FB08E6F908E1
:10195000E6FA08E6CBF822ECF608EDF608EEF60813
:10196000EFF622ECF0A3EDF0A3EEF0A3EFF022D01F
:1019700083D082E493F608740193F608740293F618
:1019800008740393F6740473A8828583F0D083D01F
:101990008212199F12199F12199F12199FE473E462
:1019A00093A3C583C5F0C583C8C582C8F0A3C5830A
:1019B000C5F0C583C8C582C822D083D082F8E4931D
:1019C0007012740193700DA3A393F8740193F582C0
:1019D0008883E4737402936860EFA3A3A380DF8A13
:1019E000838982E473EF4E6012EF60010EEDBB015C
:1019F0000B89828A83F0A3DFFCDEFA2289F050078C
:101A0000F709DFFCA9F022BBFEFCF309DFFCA9F01B
:101A100022E709F608DFFA8046E709F208DFFA80D4
:101A20003E88828C83E709F0A3DFFA8032E309F66F
:101A300008DFFA806EE309F208DFFA806688828C9C
:101A400083E309F0A3DFFA805A89828A83E0A3F650
:101A500008DFFA804E89828A83E0A3F208DFFA80E9
:101A60004280D280FA80C680D4805580F28029805E
:101A70001080A680EA809A80A880DA80E280CA80FE
:101A80002988848C8589828A83E493A30586F0A3C0
:101A90000586DFF5DEF3800B89828A83E493A3F663
:101AA00008DFF9ECFAA9F0EDFB2288848C858982A5
:101AB0008A83E0A30586F0A30586DFF6DEF480E3E3
:101AC00089828A83E493A3F208DFF980D688F0EF55
:101AD00060010E4E60CD88F0ED2402B4040050C3C6
:101AE000F582EB2402B4040050B9232345822390ED
:101AF0001A617390900FE0601C909020740CF0902D
:101B000090237460F0A37403F090902174E1F0745A
:101B1000E9F074E1F0E4909001F0E07003021DB38D
:101B2000E490900FF078B3764890900704F090908E
:101B300030E04401F0909001E024FE7003021BD7D6
:101B400024F77003021C3F240224FC4003021BFA0A
:101B50007003021C37147003021CC8147003021CAB
:101B6000BB240E6003021D981260BF904102E0305A
:101B7000E7F9904102E030E0F9E4F514E5149063F0
:101B8000FB93FF74002514F582E4340EF583E06FB7
:101B90006003021D9A0514E514B408E0900E407429
:101BA00011F0A37422F0A37433F0A37444F0A3746F
:101BB00055F0A37466F0A37477F0A37488F0E490F2
:101BC0004102F0A37408F0904102E020E1F9909006
:101BD000017401F0021D981260BF904107E030E4EB
:101BE000F990801CE0540FFFBF0FF6E4908007F0DF
:101BF000904107E04420F0021D98AF0BAE0AAD09FA
:101C0000AC08C006C007AE0CAF0DAB07AA06E4F9DE
:101C1000F8D007D0061218758F0B8E0A8D098C0824
:101C2000AF0BAE0AAD09AC08780A1219188F0B8EEB
:101C30000A8D098C0880FE90800B7408F08005E402
:101C400090800BF090800A7410F01260D7E4F516C3
:101C5000126266E478B4F6F515E4908006F09080A0
:101C600005E030E0F990800BE054036005E4FF12DA
:101C7000411E0515E515C3940240DE90800A7411DB
:101C8000F090800774FFF07516021263A6751402B7
:101C900012615512626690800774C01260B890801D
:101CA00005E030E0F990800BE0540360047F008091
:101CB000027F01909001EFF0021D9890801AE0449D
:101CC00001F090800A7411F0E4909002F090900579
:101CD0007430F09090027401F000000000909001C8
:101CE000E0B40E05E490800AF01260D790800B7487
:101CF00004F0908005E030E7F990800074FFF090E8
:101D00008005E030E7F9E4908000F0A3F0F0F0F017
:101D1000909001E0B40F05E4908001F09080007491
:101D200030F0908005E030E7F974101260B59080D3
:101D300005E030E0F974141260B5908005E030E001
:101D4000F990801474181260B8908005E030E0F9C2
:101D5000908014741C1260B8908005E030E0F99017
:101D600080157455F074AAF09080147410F0E4900B
:101D70008022F0A37405F09080177408F09080160C
:101D800074C0F0908016E020E0F99080157477F030
:101D9000E4908023F002D00080FEE4909001F0E017
:101DA000B4780EE4FDFF124F9612C04BE4FF1258B8
:101DB0008980FE759852758921758DFFD28EE4F564
:101DC0008CF58AD28C4387807898F67599559090D7
:101DD000107408F0909030E054FEF090900174FF81
:101DE000F012518390900AE020E707909000E030D5
:101DF000E449909016E030E017907388E0B45110F9
:101E0000A3E0B4460BA3E0B45706A3E064546026F5
:101E100012458A1261BF909016E04401F0907388D9
:101E20007451F0A37446F0A37457F0A37454F0E413
:101E3000909010F080091261BF800812458AE490EA
:101E4000900FF0E4909010F00246E17F147E007D48
:101E5000007B017A0079000219E5E50D250BFFE50D
:101E60000C350AFEE43509FDE43508FC788D1219BD
:101E70004AC3021907E0FCA3E0FDA3E0FEA3E025AE
:101E80000BF50BEE350AF50AED3509F509EC3508C9
:101E9000F50822FFE02FFFE433FE74002FF5827473
:101EA000023EF583E064AA22EF24FFFFEE34FFFE3A
:101EB000ED34FFFDEC34FFFC021963908017E02540
:101EC0000DF50DE4350CF50CFE7809AF0DE4FCFDC5
:101ED00012192B788922AF0BAE0AAD09AC08780233
:101EE00012192B8F0B8E0A8D098C0822F07403A314
:101EF000F0E4A3F0A322C2547A0079007E007F00B0
:101F00009044007400F0A37400F0E4904104F022C7
:101F1000904101E04410F07881E64410F622F0A3ED
:101F20007441F0A3744CF0A37443F0A3744FF0A376
:101F30007452F0A32274002521F582E43402F58363
:101F4000E022909002E0FF907203E054604480FE33
:101F5000EF4E909002F022A25CE433FF74047E0006
:101F6000A8070822E0FCA3E0FDA3E0FEA3E022AE68
:101F70000CAF0DE4FCFDFB7A02F9F81217EA788940
:101F800022FF7E00E07C002400F9EC3402FA7B01A1
:101F90002278007C007D0122FF7E00E07C0024008E
:101FA000F9EC3403FA7B0122A3F0E4A3F0A322901E
:101FB0007105E0F515907206E0FEA3E0FF22FEED4C
:101FC0009400FDEC9400FC7889021957FFE02FFF84
:101FD000E433FE74002FF582740322904107E0542D
:101FE000BFF0907202E04440F02274012521F58296
:101FF000E43402F583E0240222907215F090721608
:102000007401F0903C50229000027480F022789588
:10201000760578962278957602789622AB0BAA0AF6
:10202000A909A80802190790720B74FFF0A3229067
:10203000720BE0FBA3E0FAA3E0F9227405F0A374AD
:1020400008F0A3740FF0227D017B017A0079117EE4
:102050000022788D12193E78020219187889121917
:102060004AD3021907CEA2E713CE13227880E6FFE7
:10207000640222F0A37449F0A37445F022789576A7
:1020800006789622E5232405F582E43522F583E0DF
:1020900022121ACD7A0079007E007F0090440074ED
:1020A00000F0A37400F022AF187E0078A4E6FAFDD9
:1020B0007C0012176D7891E625E02427F582E43440
:1020C00072F583EEF0A3EFF0E5198AF0A4FFE625A0
:1020D000E02427F582E43472F583227885E6FFE573
:1020E000252404F582E43524F583E5822FF582E486
:1020F0003583F583E0227895E6F5157BA0AD0BAC32
:102100000AAF09AE0822789DE0FEA3E0A60608F615
:1021100022E514FD7C00AE0AAF0B02177F7E027B26
:10212000017A0079000219E5E4908000F0908001C6
:10213000F0F0F0F0F0908000229073FCE0FEA3E05D
:10214000F5828E83E0908061F09073FDE004F022D0
:10215000852582852483229073F7E02FF09073F613
:10216000E03EF0229080157455F074AAF02274EFCE
:10217000908000F0908001227D017B017A507900EF
:102180002290801AE054FEF090800AE05480F02201
:102190007E007D00AA22A9237B010219E57A00793D
:1021A000009080147400F090800674E0F02278A50E
:1021B000E0FEA3E0A60608F6227D017B017E000278
:1021C0001ACDF0F0E50BF0E50AF0E509F09080009B
:1021D00022908040E0FFA259E433FEEF4EF02290BF
:1021E000800074FFF022EA25E02446F582E43462A0
:1021F000F58322E518C313F518E519C313F5192261
:10220000E05470FFE054074F90900EF0229080153C
:102210007477F022F090801AE0547FF02290809042
:102220007408F09080067489F022E6FFE5232423E9
:10223000F582E4352222908040E054FEF022E0FC5A
:10224000A3E0FDF5828C83A322EBC31378B2F6786A
:10225000A406E622FEA3E02523FFEE3522FE22E0BF
:102260004401909005F022908017F090801674C081
:10227000F02225E0FEE42400FFEE34A02290800B43
:102280007420F022906E05E054072275080075094D
:1022900080229080147410F022852382852283226C
:1022A0009090027401F022FF7891E6C39F22789803
:1022B000E65480904104F0227A0479007E047F0085
:1022C0009044007404F0A37400F022907274E0FC57
:1022D000A3E0FDA3E0FEA3E022908017E0250DF52A
:1022E0000DE4350CF50CFEAF0DE4FCFD7809121978
:1022F0002B78890219577E027F00121ACD7A007955
:10230000007E007F009044007400F0A37400F0226F
:10231000E4908014F0900016E0F50CA3E0F50D7841
:102320009112193E8F0B8E0A8D098C08E50D250B35
:10233000FFE50C350AFEE43509FDE43508FC229082
:102340000010E0900074F0900011E0900075F090A3
:102350000012E0900076F0227DFF7E027F007B017C
:102360007A0479000219E5250BF50BEE350AF50A1A
:10237000ED3509F509EC3508F50822250BFFEE359A
:102380000AFEED3509FDEC3508FC907270E0F8A30B
:10239000E0F9A3E0FAA3E022907105E0F515907250
:1023A00006E0FEA3E0FF22F0A261E433A3F0A25D09
:1023B000E433A3F0A258E433A3F0A250E433A3F033
:1023C000A270E433A3F0227D017B017E027F000234
:1023D0001ACD900011E0FCA3E0FDA3E0FEA3E0FF16
:1023E000789112194AC3021907F0A266E433A3F0E8
:1023F000A263E433A3F0A265E433A3F0A267E4335D
:10240000A3F02225E024C2F582E43472F583222F62
:10241000F50BEA3EF50AE93DF509E83CF5082275B9
:10242000F002EFA42400F582E5F03405F583227470
:10243000002521F582E43404F583227D0025E0FCAB
:102440007895E6FEED2400FFEE3C22FFAB0BAA0AD6
:10245000A909A808C30219077E027F007B017A0040
:1024600079000219E5900017E0FEA3E0FF229041F9
:1024700006740DF0E4904105F0D25422789BE644B6
:10248000F6F622C394FFEE940722907105E0F5154D
:1024900022F582E43402F583229000747451F0A393
:1024A000222DFDE4338D82F583E493FE22AF217E5D
:1024B00000C3EF9509EE95082290000DE078836641
:1024C0002204F0A264E433A3F0A322907218E06423
:1024D000B022ED5407FA7401A802082278007C00AB
:1024E0007D01228E248F258D268B277529FF8F82D3
:1024F0008E83E0540F640C60037F0022E47887F63B
:10250000122150E0540F640C60030226C5E529B483
:10251000FF069073F5E0F529E527600B7887E6C3A1
:10252000952740037F0022122150A3E0C4540F12CC
:1025300062E3122150A3A3E0540F7888F6122150D1
:10254000A3A3A3E0F528908005E030E7F9E47885BF
:10255000F67985E7C378889650337885E6FF74016D
:10256000A807088002C333D8FC7886F6E5285660B1
:1025700010908005E030E7F91220DB908000F080B9
:10258000071220DB908001F078850680C41221506C
:10259000A3E0540F7888F6E5277001F690801AE0E2
:1025A00030E75B122150E0C4540FF52875F005A404
:1025B000FFAEF012215712223EE0908064F08D822F
:1025C0008C83E0908092F09073F612223EA3E0900C
:1025D0008065F0ED2404F582E43CF583E0908063AF
:1025E000F09073F6E0FCA3E0F5828C83A3A3A3E054
:1025F000908062F0C3E49FFFE49EFE122157E478CE
:1026000085F67985E7C378889640030226B79080DF
:1026100014E526F0908005E030E7F9E4908006F0BC
:10262000908067E030E0037F0022908005E030E09A
:10263000F9908067E030E0037F002290800BE05447
:1026400003600DE030E109E529600280157F00227A
:10265000908005E030E13590800AE020E12EE52908
:1026600060271529122150A3A3E0C4540FF5287543
:10267000F00CA4FFC3E49FFFE495F0FEEF2525F5E1
:1026800025EE3524F5240225187F002290800BE0EA
:1026900020E604E030E50C788506788706052605F7
:1026A00026800E788506067887060674042526F5AA
:1026B000267529FF022602740C2525F525E435240C
:1026C000F5240225007F01227D0012235A907268B2
:1026D0001222CEFF90040012196390040474EFF0EC
:1026E000A37401F0A374A1F07B017A72796C125A81
:1026F0004390040712196390040B74A2F07B017AD3
:10270000727978125A4390040C1219639004107471
:10271000A3F0E4A3F0A26C33A3F0A374A4F07B01B4
:102720007A72797C125A4390041412196390041936
:1027300074A5F07B017A727970125A4390041A12D0
:10274000196390041F7401F0A374A6F0A25FE43330
:10275000A3F090042374A7F09004261224C174A956
:10276000F090042B04F0A26DE433A3F090900AE003
:1027700090042DF090042F74AB1223E9A25CE43393
:10278000900436F0A25AE433A3F0907203E0900470
:10279000381223A77B017A727974125A439005008C
:1027A00012196390050474B0F0907219E090050559
:1027B000F090721BE0900506F0907218E09005070B
:1027C000F090721AE0900508F0A374C0F0789AE6D1
:1027D000A3F0A374B1F090051004F0789FE6A3F085
:1027E00008E6A3F0A374B3F0A26CE433A3F09072F4
:1027F00008E0900515F0A374B4F0789BE6FFA3F011
:10280000789CE6FEA3F0A374B5F090052404F0A331
:10281000EFF0A3EEF090053074B7F0909000E090E8
:102820000531F090053574B8F090054004F09071D2
:1028300002E0900541F078A5E6A3F008E6A3F09049
:102840007105E0900544F0907206E0900545F09027
:102850007207E0900546F09090287401F0E4F000D3
:10286000909029E0900550F090902AE0900551F06A
:1028700090902BE0900552F090902CE0900553F052
:1028800078F07C057D017B017A7179F07E007F1004
:10289000121ACD2053061222B81261077F0322308C
:1028A0006530789AE630E02A90000FE0248F24FC0F
:1028B000501D24F2601924ED601524FC60140424DA
:1028C000FB500C24A9600824FB6004247970037F6A
:1028D0008222D25290000FE01219B92A1F102A2624
:1028E00011297C1229D77129DB7229DF7329E3743E
:1028F00029E77529F27629FB772A04782A0D7B2AA5
:10290000167C29B78129C28229CD8329AD96295CFD
:1029100097298D9929959A299D9B29749C29A59D74
:102920002985F5293CF62944F72964F8294CF92A28
:102930002DFA2954FB296FFF00002A3412561E8FEE
:1029400020022A371253B08F20022A37125F548F89
:1029500020022A3712608A8F20022A371263F38FEF
:1029600020022A3712233F1261E28F20022A3712F7
:102970006391800B1252D68F20022A37126204759F
:102980002003022A37123B4B8F20022A3712305283
:102990008F20022A371226C88F20022A37125E7B28
:1029A0008F20022A37124B418F20022A377F0112D3
:1029B00036CE8F20022A3712233F12612E8F20023B
:1029C0002A3712233F125C778F20022A3712233FC7
:1029D000125F898F2080607F0280197F02801E7FB6
:1029E0000280237F02802890721CE04402F07F0264
:1029F00080267F03125B478F20803C7F031262A4F6
:102A00008F2080337F03125B848F20802A7F031204
:102A10004BD18F2080217F031244DC8F208018123D
:102A200048D08F20801112482D8F20800A12133534
:102A30008F208003752082C252AF202290000FE0C9
:102A4000F51E788912193EEC4D4E4F601290000C25
:102A5000E0648060047F0380027F028F1F80037523
:102A60001F017884A61F306D1D30691A907215E51C
:102A70001EF0E4907216F0903C5074E2F012C01E0A
:102A800012206C600122E51E1219B92B78002B5E12
:102A9000032BBB042AF9122BBB152B1B1A2B6B1B08
:102AA0002B851E2B3D232B4E252AD7282AE82A2B9F
:102AB0000A2F2B92432B9F452BA6462BAD512BB4AF
:102AC000522B2C5A2B4E9E2BC7A22BBBA32BBBBB2E
:102AD0002BC0BE00002BCEE51F64026003022BD684
:102AE000122D598F1D022BD3E51F64036003022BA7
:102AF000D6123A418F1D022BD3E51F6402600302F8
:102B00002BD6120F338F1D022BD3E51F64016003F8
:102B1000022BD61263CC8F1D022BD3E51F640260FB
:102B200003022BD612392E8F1D022BD3E51F640210
:102B30006003022BD61235918F1D022BD3E51F6443
:102B4000026003022BD61255558F1D022BD3E51FB1
:102B500064026003022BD6123D588F1D8075E51F5D
:102B600064027072125E438F1D8068E51F640170FD
:102B700065125BFE8F1D805BE51F64017058125467
:102B8000EE8F1D804EE51F6401704B1263DA8F1DBE
:102B90008041E51F6402703E124A138F1D8034127B
:102BA00064038F1D802D1256E08F1D80261259B9A7
:102BB0008F1D801F1259FE8F1D8018751D038013F5
:102BC000125AC98F1D800C1260318F1D800512288A
:102BD0009F8F1DAF1D227F82228F2285152378951E
:102BE000E6F51590800BE030E5667B201220FD12A3
:102BF000C00FE522602FE4908014F0FE7F40FD12AC
:102C0000217A1219E5908005E030E7F9E49080061A
:102C1000F0908005E030E0F97D017F017E001261D7
:102C200079152280CD1220FB12C00FE5227003021D
:102C30002CD412209C1222AE904104E030E0F91214
:102C4000223612219D908005E030E0F9152280DBCC
:102C5000E52230E0037F89227B201220FD12C00F85
:102C6000E4908014F0852224FE7F40FD12217A1228
:102C700019E5908005E030E7F9E4908006F0908057
:102C800017E524F09080167480F0908016E0540AC6
:102C900060F8908016E030E12D90800BE030E10587
:102CA0007522EE8007E4FF12411E8F22908017E00C
:102CB000FFC3E5249FFFC3132400F582E43450F5DD
:102CC00083E522F080BE908016E020E0F990410478
:102CD000E020E1F990800BE0900000F0908005E0AA
:102CE00020E12D12634D900001EEF0A3EFF09080F3
:102CF00030E0900007F0908031E0900008F0908084
:102D000032E0900009F0908033E090000AF08018E3
:102D10009000017407F0A374FFF07E007F04FD7B38
:102D2000017A0079071219E5900003E508F0A3E5A0
:102D300009F0900005E50AF0A3E50BF090000B7494
:102D4000AAF0780C7C001221787E007F401220913E
:102D50001261078523157F032212637B7899E6644D
:102D600001702E90721CE030E027AE0CAF0DE4FC39
:102D7000FD780B12192B7889121E6E7014121ED654
:102D8000E50DAE0C7802C333CE33CED8F9F50D8EF7
:102D90000C121F6F121E6E60037F84221252688F06
:102DA00020EF30E70122788D12193ED312201C400B
:102DB00009305603022E747F8A22121E5A50037F56
:102DC0008A22121F42121FDB2064047F0180027FCF
:102DD00000907218E0B4B0047E0180027E00EE5FC5
:102DE0007003022E93121F578003122065D8FBFF39
:102DF0007899E66F7001EE6003022E9378891219BC
:102E00006F00000000E4FFFEFDFCC312201C706494
:102E10007899E6B4041290726CE0FCA3E0FDA3E0A4
:102E2000FEA3E0F50B121EE590721EE50CF0A3E583
:102E30000DF0750C00750D0112C0038F20E52030D8
:102E4000E71890721EE07004A3E06401700FE520A3
:102E500030E0047F0180027F03227F892290801668
:102E6000E020E0F990721FE024FFF50D90721EE063
:102E700034FFF50C7E0C7F007DFF121E51E50D45E1
:102E80000C600D126107E50D150D70F1150C80ED4C
:102E90007F0322125EE912C0038F20E52030E72D68
:102EA00030E01C904102E030E0031200AB9041049E
:102EB000E020E1EF305403121EF675200180037507
:102EC0002003788912196F000000008009121EBBD0
:102ED000121957752089AF2022904106E0547FFFD8
:102EE000BF211C7F437E427D537C55900000E0F85B
:102EF000A3E0F9A3E0FAA3E0FBC312190760077887
:102F00008476027F82227B017A007904125A437808
:102F1000851219577B017A007908125A4378891271
:102F200019577A0079007E00123E7A90000DE07801
:102F300083F690000FE0306E3F6412602A7888E6D6
:102F4000B4051718E6B48F1218E6B4930D18E6B45A
:102F5000840890721C7402F0800690721C7407F052
:102F6000306504E4789BF6C26EE47899F678A1E6C1
:102F7000F5159090077401F0206C0302302DA264C7
:102F8000E433FF907218E0FEB4B0047D0180027D4E
:102F900000ED5F6023A25CE433FF7883E6FDB507B4
:102FA0001220670F7402A805088002C333D8FCF50D
:102FB0001D8037751D108032206115A262E4332414
:102FC00001FDE433FC7883E6FFB50511E4B5040D9B
:102FD000306305751D088012751D01800D7402A8EF
:102FE00007088002C333D8FCF51D306756205853BC
:102FF000205703305603305D273064117883E67024
:10300000028025EE64B0603B751D0280367883E651
:10301000FF7401A807088002C333D8FCF51D802384
:103020003064207883E6601B751D0180167883E686
:103030007008907208E0F51D8009751D04789CE603
:103040004404F6E51D7899666005AF1D1250177FA0
:103050000222907218E064C060037F892220530628
:103060001222B81263347B017A047900125A439019
:10307000726C1219637B017A047906125A439072BA
:10308000781219637B017A04790B125A4390727C8F
:103090001219637B017A04790F125A4390727012ED
:1030A00019637B017A047940125A438F0B8E0A8D83
:1030B000098C08900445E090720EF0900446E09070
:1030C000720FF0900444E06451704C9004FEE06490
:1030D0004A7028A3E0644E7022FF78ADE6FEEFC38D
:1030E0009E501412241FE0FCA3E0FDEF122403EC19
:1030F000F0A3EDF00F80E3E4789CF6AF0BAE0AADE1
:1031000009AC08EC4D4E4F600EAF0BAE0AAD09ACEA
:1031100008907268121963C262A2648267400F90BD
:10312000726C1222CEFFEC4D4E4F6002D2629004C0
:1031300004E0B45103D38001C3925C306703206480
:1031400006A25CA062925C9072781222CEFF1223DB
:103150008A2FF50BEA3EF50AE93DF509E83CF5084A
:103160002060099072701222CE122367907268124A
:1031700022CEC3950BFFEE950AFEED9509FDEC9569
:1031800008FC90727412196330672130641E122299
:10319000CBFF90726C12238DFBC3EF9BFFEE9AFE68
:1031A000ED99FDEC98FC9072741219637899E6FF22
:1031B0001250177F0322C26DC269122164E4F52206
:1031C000E522C3789596501D122094126334E522AF
:1031D000122272A807FC7D017B017E027F00121A79
:1031E000CD052280DB12220D12209412633490014F
:1031F000FEE0B44A06A3E0644E60037F892290009B
:1032000000E090800AF030E00678A276408004E486
:1032100078A2F67898E6B4800790800AE04480F0BF
:10322000900002E078ADF6900004E0F512A3E0F51E
:1032300013900006E078AEF6900008E0F5149000D8
:103240000A12210690000C789F1221B090000EE027
:10325000F510A3E0F5119001EAE0F50EA3E0F50FFB
:10326000900191E0909009F090019FE0B4510AD252
:10327000599080407401F08007C259E4908040F07A
:10328000E4909002F0900192E07004A3E0601D9041
:103290000010E05470909005F0900192E0FEA3E0E1
:1032A000FF1249729090057490F080069000101201
:1032B000225F1222A0900194E0600312220090008D
:1032C00011E0FF125CB29001A7E078A3F6E670026D
:1032D0007604D26D78007C717D017B017A017900E2
:1032E0007E007FF0121ACD9071031221AE90710F03
:1032F000E078A2F6123452907121E0B45102D26902
:1033000012C0007F03228F2290720AE0FF70030236
:10331000344ED3944040047E408002AE07E4FFEF79
:10332000C39E503190720BE0FBA3E0FAA3E0F9904A
:103330007209E0FD7C00E92DF9EC3AFAEF29F9EC8D
:103340003AFA121727FD74402FF582E4340EF58304
:10335000EDF00F80CA7898E6FF20E606E5226402C9
:103360006009EF30E615E522B40710900E56744060
:10337000F0E4A3F0900E5D74408014E522B40613CF
:10338000900E40740AF0A37406F0900E487401F099
:10339000E4A3F0E522B40706900E417407F0E5229D
:1033A00064016006E52264067030306C1C90700089
:1033B000E0B40D15A3E0B40610A3E0B4050BA3E040
:1033C000B4060690700AE08001E4900E42F0900E80
:1033D000437402F0900E477440F0E5226401702BB4
:1033E000900E4AE0B48006A3E06493600AD26C9029
:1033F0000E507403F08007C26CE4900E50F0206D04
:103400000A900E4A7434F0A37412F0E5226402604C
:1034100005E522B40708907205E0900E48F090414F
:1034200003EEF0904102E020E1F9904102E05421E6
:103430006005E054FEF022904102E020E01390721B
:103440000AE0C39EF0907209E02EF0023308123EAB
:10345000D02290800AE030E105751802803C90800F
:103460000BE030E405751872803090800BE030E39B
:1034700005751848802490800BE030E702800790A3
:10348000800BE030E605751880800F90800BE030EF
:10349000E505E4F518800375182E90800BE030E602
:1034A00005751902800F90800BE030E50575190154
:1034B000800375190478A2E654C060031221F390CA
:1034C00071EEE030E348E47891F6A3E078B2F6E6F6
:1034D0006018E478A4F678B2E6FB30E0071220A783
:1034E000E02FF006122249B408EC9071EDE078B2BA
:1034F000F6E6605378A4760878B2E6FB30E007126F
:1035000020A7E02FF006122249B410EC8039E478AD
:10351000A4F6E514C313FF78A4E6C39F5029AF189F
:103520007E00E6FBFD7C0012176DEB1220CFEEF063
:10353000A3EFF078A4E6FFE5198FF0A4FEEF1220C8
:10354000CFE02EF00680CB907195E0703C90800B20
:10355000E030E30578B276262290800BE030E40577
:1035600078B2763E2290800BE030E70280079080B0
:103570000BE030E60578B276462290800BE078B218
:1035800030E503764622761622907195E078B2F601
:1035900022900011E0543FF5207521FF75228078BC
:1035A00099E66401600302366890721CE020E00333
:1035B000023668125FEDEF604E900202E06048A3B1
:1035C000E0FF900202121E94703D900202E0240877
:1035D000F521E520B43F08A3E024F8F52280281265
:1035E0001F3564AA6010121F3565206009121FEA9A
:1035F0002521F52180E9121F3564AA6007121FEA10
:10360000F52280037521FFE521B4FF097E007F804C
:10361000121E4F804F900202E07E002400F9EE342B
:1036200002FA7B01C002C001121F91D001D0027FBB
:1036300008121ACDAF227E007C0074002521F9EC1F
:103640003402FA7B01C002C00178087C007D01D001
:1036500001D002121ACDE5222406900001F0740870
:103660002522F522AF228062E4900000F0A37406C8
:10367000F0E4A3F0789AE6FB54F960047F808002BE
:103680007F00900003EFF0A312198800000000EB08
:103690007899565406600312200720560330570CC1
:1036A0007899E6B401069000037480F0306C1978C4
:1036B00099E6FF54186011EF30E40790721CE02087
:1036C000E3069000037480F07F08125343228F2298
:1036D0007E027F007D0012235E90040974F1F09059
:1036E00072681222CEFF90040A12196390040E74BD
:1036F00098F0A374EFF0A374F2F090726C1222CEE3
:10370000FF90041112196390041574F3F090727015
:103710001222CEFF90041612196390041A74F4F06A
:103720009072781222CEFF90041B1219639004202D
:1037300074F5F090727C1222CEFF9004211219636E
:1037400090042574F6F01222CBFF90042612196320
:1037500090042A74F7F0E4A3F0A304F0789AE654F6
:103760001690042EF0A374F8F0A25FE433A3F0A344
:1037700074F9F09004331224C174FBF0A255E433C1
:10378000A3F0A374FC1223E9A25AE43390043FF09F
:10379000A260E433A3F0A25CE433A3F0907203E0F0
:1037A000900442F0A25EE433A31223A79004807435
:1037B000E1F090048504F0E478A4F679A4E7C378F6
:1037C000AD96501778A4E6FF122403E0FCA3E0FDB9
:1037D00012241FECF0A3EDF00680E0789AE6900545
:1037E000FFF0E52260061222B8126107E4FF12C062
:1037F00036EF6012788912196F00000000306C03F8
:1038000012247C7F03227F8922090220000101000B
:10381000803209040000020806500007050102007A
:103820000200070582020002000C121E0422183A50
:10383000286210721C12010110000000408F0580E8
:103840009301000102000104030904180341006C04
:103850000063006F00720020004D00690063007279
:10386000006F0028034D00610073007300200053B7
:103870000074006F00720061006700650020004462
:1038800000650076006900630065001003360039AA
:10389000003900300046003000310047656E657227
:1038A00069632055534220466C61736820446973F4
:1038B0006B2020372E373647656E65726963205559
:1038C00053422053442052656164657220202031A8
:1038D0002E3030000000000000000000AAAAAAAAB2
:1038E000AAAAAAAAEEEEEEEEEEEEEEEEFEFFFFFFC5
:1038F000FFFFFFFFFFFFFFFF7FBFDFEFF7FBFDFCD9
:103900007EBFDFEFF7FBFD7E050F0C000107100205
:10391000020000001A03300035003800460036006F
:103920003300330038003600330037003800E4F548
:10393000207899E6B4010A90721CE030E0037F839E
:1039400022900010E05408131313541F900400F049
:10395000900011E0543F900402F0900012E09004B7
:1039600003F0900013E0900404F0900014E0900441
:1039700005F07E027F00121E4FE4900001F0789A5D
:10398000E6FF54F960047E8080027E00900002EE23
:10399000F0E4A3F07520047899E6FE5F5406600316
:1039A000122007205603305707EEB40103122007F8
:1039B000306C167899E6FF5418600EEF30E40790EB
:1039C000721CE020E303122007306D11741A121FDD
:1039D000F974E0F012C01E12206C60012290040203
:1039E000E0900004F0900402E0604924F8601224A2
:1039F000C9601824237030900005740AF0740C809C
:103A0000209000057412F07414801690000474085D
:103A1000F0A37412F0900018741CF0A3740AF074F0
:103A2000202520F520800D9000057401F0E4A3F01E
:103A300005200520E52014900000F0AF201253432C
:103A40002212637B7899E66401702790721CE03043
:103A5000E020AE0C780B121ECB121E6E7014121EDC
:103A6000D6E50DAE0C7802C333CE33CED8F9F50DC2
:103A70008E0C121F6F121E6E60037F84221252681A
:103A80008F20EF30E70122121E5A50037F8A223026
:103A90006C197899E6FF64016046EF20E30A30E490
:103AA0000A90721CE020E3037F8722789AE6600F79
:103AB00054066008799AE778995660037F872290C8
:103AC0007218E064B0702EA25C121F5A800312209C
:103AD00065D8FBFF7899E67C00B50719ECB50615AB
:103AE000E50D150DAE0C7002150C4E600512633419
:103AF00080EE7F0322121FDB121F42125EE912C00A
:103B0000068F20E52030E72D30E01C904102E030A8
:103B1000E0031200AB904104E020E1EF30540312C7
:103B20001EF67520018003752003788912196F0035
:103B30000000008013121EBB121957752089E50D75
:103B4000450C700478847601AF202220530612229F
:103B5000B8126334900408E06451701A90721CE04B
:103B600054F7F090040CE0600790721CE04408F0F9
:103B700012247C7F0322C266C263C264C265C2672C
:103B8000C25AC25FC260C25EC261C25DC258C25048
:103B9000C270900403E064516008900407E064512F
:103BA0007045900403E0B45102D264900407E064CD
:103BB000517053D267900400E0B45102D25F900478
:103BC0000EE0B45102D25E90040FE0B45102D26014
:103BD000900413E0B45104D25D802B900414E0648F
:103BE000517023D258801F900404E0B45104D2666F
:103BF0008014900405E0B45104D263800990040657
:103C0000E0B45102D26590040BE0B45102D25A9054
:103C10000409E0B4510DE4907202F090040AE090BF
:103C20007203F0305A047F0180027F00909001EF10
:103C3000F0900412E0B45106A2677263926190049E
:103C400015E0B45102D250900416E0B45102D27083
:103C50007F03227F007D0012211D9000027498F0E6
:103C6000A37401F078A8E6A3F008E6A3F008E6A3A1
:103C7000F008E6A3F0A3744AF0906000E49390008B
:103C800009F0906001E49390000AF090900AE090AF
:103C9000000BF0A26CE433A3F07898E6A3F0900058
:103CA00010744AF0A3E515F0A251E433A3F090801C
:103CB00007E0900013F090900EE0900014F09060F8
:103CC00002E493900015F0906003E493900016F0E6
:103CD000900020744FF09000307448F090004074D1
:103CE0004EF090800BE0900100F0909013E0900176
:103CF00001F078B4E6A3F0908009E0900103F09021
:103D00008011E0900104F0909012E0900105F09095
:103D10008040E0900106F0A37401F090721CE090E6
:103D20000108F09090287401F0E4F000909029E0F0
:103D3000900110F090902AE0900111F090902BE00B
:103D4000900112F090902CE0900113F07D017F0122
:103D50007E001261797F03221252688F20EF30E7D4
:103D600003023E507E007F207D007B017A047900B3
:103D70001219E590000FE0F521B42513900017E02B
:103D80005401F52278047C041220477F04801190AE
:103D9000001DE05401F52278007C041220477F0CBE
:103DA000121ACDE522701D900400121F64FFEC4D25
:103DB0004E4F700D900404121F64FFEC4D4E4F6087
:103DC000037F84227899E66401703690721CE0FFCC
:103DD0005405FEBE010CEF4404F090721DE0700229
:103DE00004F0305E1C90721CE030E01512205290FE
:103DF0000000121EA890000412198800000800801C
:103E00002AE521B42529788D12193EEF24FFFFEE13
:103E100034FFFEED34FFFDEC34FFFC90000012197E
:103E200063900004121988000002007F08801E7E43
:103E3000007F20121E4F788D12193E900004121E32
:103E4000A8900008121988000002007F2002534346
:103E5000AF2022900E45E0900074F0900E46E09066
:103E60000075F0900E47E0900076F02290726CE0C2
:103E7000FCA3E0FDA3E0FEA3E0229044007400F068
:103E8000A37400F02278407C0E7D017B017A0E79CC
:103E9000007E007F08121ACD904102E054FEF0220D
:103EA000F0904102E04441F02290720B74FFF0A3C5
:103EB0007438F0A37429F022851521907105E0F57E
:103EC00015907206E0FEA3E0FFC394FFEE94072274
:103ED000904102E04451F0227A04790090720B7410
:103EE00001F0A3227881E654EAF6904101E0442AE9
:103EF000F0E054EA22900E45E0900075F0900E46F6
:103F0000E0900076F022A3F0E4907209F022E493AE
:103F1000907209F022FF2FFFEE33FEED33FDEC33FC
:103F200022E4904104F07880760122904106F0E48A
:103F3000904105F022D253900E44E02290722074FA
:103F400003F0228F1DE478A4F6908016E020E0F9BB
:103F5000904104E020E1F91222FD9000001219883E
:103F6000555342537B007A007985125A43900004DE
:103F7000121963E490000CF090000BF090000AF02E
:103F8000900009F0900008F012246E904104E03097
:103F9000E10A904102E030E0F27F0022C254122296
:103FA000FDE4904104F0E51D7002FF22C28CC28D39
:103FB000E4F58CF58AD28C904107E054BFF0907202
:103FC00002E04440F0904104E020E010904102E023
:103FD00030E0037F0022308DEC7F002290000FE064
:103FE000701678A4E6C39401500E1224B9700978B3
:103FF000A406124022023F571223D2702290000FD3
:10400000E0651D701A1224B97015908016F01240E8
:10401000221222FD12231078911219577F01227F5C
:1040200000227B017A007904125A437885121957CD
:1040300022AD07904104E020E1F9ED247FB40F00A8
:1040400040030240F690405375F003A4C58325F069
:10405000C5837302408002408602408E0240C70240
:10406000409602409D0240A40240AE0240B502408C
:10407000C00240CE0240F60240D90240E30240EACC
:10408000121F107F052212200E76260240F2122007
:104090000E76200240F2122015763A805512207DCD
:1040A0007628804E78957607789676278044122079
:1040B000157604800512201576FF789776FF8036F6
:1040C00012200E7621802B12200E762480241220BE
:1040D00015760478977601801D121F1012207D76C8
:1040E00029800F12207D76298008789576037896AE
:1040F0007611E47897F67884E6FCB40207121F1074
:104100007D078017ECB40311904101E04404F0787E
:1041100081E64404F67D0680027D04AF052278B472
:10412000E6601F90800BE030E1037FEE229080106C
:10413000E0FC90800F7401F090800FE030E0F9AF68
:104140000422E490800CF090800BE030E1037FEEDD
:104150002290800DE0F9908010E0D378B396400370
:104160007FEE22908006E0543025E0FCAF0119EF8D
:10417000607090800CE0FD908020E0FE908021E057
:10418000FBEEF525EBF526D394FFE52594034015CA
:10419000E5269404E5259404500B74302526F58219
:1041A000E434808036C3E5269404E5259404503237
:1041B000EC6016C3E52594024004EC20E6AEC3E5AE
:1041C0002594025004EC20E5A3908013E0FEE42542
:1041D00026F526EE3525F525852682F583E06DF05A
:1041E000808A908010E0FF22909000E030E2037F10
:1041F0000022909012E030E0037F0022909030E0A7
:1042000020E0037F0022120875EF7002FF2212C027
:1042100039E4F515E515C378AD965026E51525E08A
:1042200024C2F582E43472F583E0FEA3E0789FA611
:104230000608F6E61846600678A1A615800405155E
:1042400080D290900AE020E707909000E030E411DF
:10425000909016E020E50AE030E20312C0247F01CE
:1042600022909016E020E03378ADE62401FFE4339D
:10427000FEEF25E0FFEE33FE7DFF7B017A72798051
:104280001219E578ADE675F002A4FFAEF07DFF7B74
:10429000017A7279A21219E51257E6907120E06452
:1042A00051600312C0547F01228F258D2690801A01
:1042B000E0F50BE50B30E426306D07E4FF12C05744
:1042C0008021530BEF908007E0F527E4F090801AEF
:1042D000F0908007E527F07F961262ED8005E4906C
:1042E000801AF0908005E030E7F91221DF90800518
:1042F000E030E7F99080007490F0908001E526F0BE
:10430000000000000000000000000000E4F527901D
:1043100080047401F0908002E0FDE525FEE5277A37
:10432000002400FFEA3E8F82F583EDF090800AE0E2
:1043300030E01B908003E0FDE525FEE5272400FF2B
:10434000EA3EFE74082FF582E43EF583EDF0052782
:10435000E527B406BA306D0AE50B30E4057F0102AB
:10436000C05790801AE50BF02290714CE0B45106D2
:10437000A3E0FF125C3B907012E078A2F690800AF6
:10438000E0FF907013E0FEEF4E90800AF09071F025
:10439000E0F510A3E0F5119071EAE0F50EA3E0F569
:1043A0000F9071F2E078ADF69071F4E0F512A3E0B1
:1043B000F5139071F6E078AEF69071F8E0F5149090
:1043C00071FA1221069071FC789F1221089071FEFB
:1043D0001221AE907191E0909009F09071A7E07871
:1043E000A3F6E6700276049071A9E0FF125CB29029
:1043F0007194E060031222001221647E707F147BAE
:10440000107D501224E3EF7002FF2278007CA0128E
:1044100021787E207F00121ACD12220D9071A8E023
:10442000FF125CB27F0122905000E06499600302A9
:1044300044DBA3E0640760030244DB905003E0FF29
:10444000905002E02F2432FFE4FEFDEDC39F501098
:1044500074002DF582E43450F583E02EFE0D80EBE0
:1044600074002FF582E43450F583E06E706DD26BEA
:10447000306B2390507DE0F4FF90507CE0B5071640
:10448000E0D394FA400890720574FAF080089050D6
:104490007CE0907205F090507EE0643C703DA3E0BB
:1044A00064C37037905081E06403702FFEFD90501C
:1044B00080E0FFEDC39F501074802DF582E43450EE
:1044C000F583E02EFE0D80E6905080E02480F5829A
:1044D000E43450F583E0B50602D26A228F2212231B
:1044E0009E122483501485152312248AAD227C0049
:1044F0007B1212C00F852315800312235890721966
:10450000E0900400F090721BE0900401F0907218AB
:10451000E0900402F090721AE0FB900403F0A374A0
:10452000C0F0A25BE43325E0FE789AE6FD54012E4C
:10453000900408F090047EEDF0E65406FFBF0604F8
:10454000E04440F0E522B4020A907218E090048042
:10455000F0800AE522B40305900480EBF0205F0EA2
:10456000909000E030E307E4900481F0800690042E
:10457000817401F090048274EFF0A37401F0205371
:10458000061222B81261077F03229072057432F07E
:10459000E4789AF60876FF08F69072087480F0C204
:1045A00051C26CC26BC26AC264C267C262C255C2E7
:1045B00066C263C265C26178B37648C25AC25FC23E
:1045C00060C250C270C258C25EC25DC25C90726866
:1045D0001219880000000090726C12198800000007
:1045E0000090727012198800000000907274121905
:1045F0008800000000907278121988000000009076
:10460000727C121988000000009072037450F0E46C
:10461000789AF690721874C0F090721AF0E4907262
:1046200019F090721BF01257911260CC90725FF0EB
:10463000909016E04438F022F58374FFF0A3F0EF79
:1046400025E025E02439F582E43473F583E075F044
:104650000AA42290800AE054EEF0909002E054FE0A
:10466000F09090057431F0909002E04401F0908059
:10467000147450F0908022F09080237405F09080A4
:104680001722E4908023F090800AE0FF907013E0FE
:104690005410FEEF4E90800AF078A2E654C0222417
:1046A000EEF582E43472F583E4F0A3F0227E007D1F
:1046B000FF7B010219E5909002E04401F0E4908054
:1046C00023F0227E007F04021ACD909002E054FE77
:1046D000F0907192E02290700CE04401909005F00F
:1046E00022124C5E904102E030E0031200AB788071
:1046F000E6B40118904104E030E011122ED9788020
:10470000EFF6BF0207122A3C7880A6077880E6FF02
:1047100064036004EFB404051251F780C77880E6A3
:10472000B4050B904101E020E4047603801D7880FD
:10473000E6FFB40607904101E030E20BEFB4070B4F
:10474000904101E020E404788076047880E6FF3030
:10475000E7071240317880A607306F09C26F904199
:1047600007E04401F0306D09903C5074EDF012C048
:104770001E904107E020E40A909017E020E6030233
:1047800046E4124F110246E47898E630E6047F00D2
:1047900080027F80904104EFF08515221220F612EE
:1047A000C00FE4908014F0740212226790800BE036
:1047B00030E6071221118D23800A122111ECC31358
:1047C000ED13F523E5188523F0A485F024F525E500
:1047D000198523F0A425192524F524908016E020BE
:1047E000E0F97898E630E6047F0080027F8090410F
:1047F00004EFF0904104E030E0F91222369080009E
:104800007485F0908001E525F0E524F09080067431
:1048100084F0908005E030E0F99080007410F01290
:1048200021D1E4908014F08522157F0322206503B6
:104830007F8222900013E0641060037F84227A0458
:1048400079001222C0E4904104F0904104E030E08D
:10485000F978847601789AE630E0037F8722E4F5E0
:104860002112242FE070270521E521B410F3122333
:104870009E7B607D077C0012C00F905080E0B4AA40
:104880000AA3E0B4550512235880357F0322900413
:104890008074AAF0A37455F0900400E0F522E4F5CA
:1048A0002112242FC083C082E0FFE521FDE5221202
:1048B00024A1EF6ED082D083F00521E521B410E170
:1048C0007F0712C036EF6005C25B7F03227F89221B
:1048D0002065037F8222900013E0641060037F84D0
:1048E000227A0279007E027F009044007402F0A3D5
:1048F0007400F012633478847601305B037F872282
:1049000012239E122483506785152112248A7B105E
:104910007D077C0012C00F852115900200E0FFE4A6
:10492000F521E521FDEF1224A17400252112249127
:10493000E06EFE74002521F582E43400F583E06E1C
:104940006017D25B789AE64401F690721074A5F075
:10495000907211745AF07F87220521E521B410C2AC
:10496000E4907210F0907211F0789AE654FEF67F9F
:1049700003228E248F25E4FD79FFFCEC6402700392
:10498000024A12909003EDF0909004E9F090900BA1
:104990007401F090900BE030E0F990900CE0FE9004
:1049A000900DE0FBEEF526EBF52790900CE0B52599
:1049B00006E4B524027C02EC1460250470BDC3E556
:1049C000279525E5269524500DE970047C0180ABE0
:1049D000E925E0F980A5ED25E04401FD7C01809BFF
:1049E000D3E5279525E5269524400FBDFF047C02DD
:1049F0008089ED25E04401FD80817C02E527652565
:104A00007004E5266524700302497BEDC313FD02A3
:104A1000497B22900010E05402F520E47F01FEFD66
:104A2000FC7889121E6E70037F8422900011E020B2
:104A3000E107900018E030E73E125FEDEF602F9045
:104A40000200E06029A3E0900200121E93701F9004
:104A50000201E0900200121F81C002C001121F91EA
:104A6000D001D002121ACD900201E0FF80327F30D7
:104A7000121E4D7F308029121E4B9000027401F0EF
:104A8000A3F09000057414F0A37401F0E52025E074
:104A900025E0240A900001F090000AE520F07F1440
:104AA000125343788912196F000000007F0322AB74
:104AB00007EB75F00C84FAEB75F00C84ABF0EA7040
:104AC0000E90624893C313FE74019313FF800A1281
:104AD00021E6E493FE740193FF7C007D0312176DC1
:104AE0007D1812177FEF4401FF907356EEF0A3EF8D
:104AF000F0EBFF7E00907356E0FCA3E0FD12176D13
:104B00001221E67401932FFFE4933EFEEA7C002F0E
:104B1000FFEC3E907358F0A3EFF0EB90625A932AAB
:104B2000F50B907358E0C394204009E50B75F0C075
:104B30008485F00B907359E0F50A907358E0F509FD
:104B400022206A037F03222053061222B812633404
:104B50008515221223987B117D017C0012C00F85E0
:104B60002215E4F522E52225E0FFE433FE74822FCE
:104B7000F58274023EF583E0FF7400252212249131
:104B8000EFF00522E522B408DCE4FFF522E522542B
:104B9000072400122491E0FE74002522122433E041
:104BA0006E2FFF0522E522B440E3EF702190044010
:104BB000E0789A30E40DE64410F6909016E054FD4B
:104BC000F0800BE654EFF6909016E04402F07F037D
:104BD000228F22E522B40209907219E0D394025088
:104BE0000EE522B4030C90721BE0D3940240037FC5
:104BF00089222053061222B812633485152312230A
:104C000098AD227C007B1112C00F85231512541C15
:104C1000E52264027024BFB00F907218E0B4B008AF
:104C2000907219E004F08005E4907219F090721807
:104C3000EFF0306C2612247C8021E522B4031CBFE7
:104C4000B00F90721AE0B4B00890721BE004F080CC
:104C500005E490721BF090721AEFF07F0322E4904B
:104C60004104F0904200E054037013904107E020AB
:104C7000E407909017E030E6EA124F1180E5904289
:104C800000E0789830E00476408009768090800AD1
:104C9000E04480F0306C09903C5074D0F012C01E9B
:104CA000E47881F6907204F090900AE020E7369064
:104CB0009000E020E42F904104E0FF904102E04F9B
:104CC00020E013904107E020E407909017E030E6E1
:104CD000E5124F1180E01261BFE4909010F09090C7
:104CE00016E04401F07880760122C299ED30E61298
:104CF00075990D3099FDC29975990A3099FDC2993F
:104D000080087599203099FDC299ED30E01BEF7550
:104D1000F00A842430F5993099FDC299EF75F00AB4
:104D200084E5F02430F5998032EF54F0C4540FFE3E
:104D3000D39409400674372EFE800474302EFE8E04
:104D400099EF540FFED39409400674372EFE800469
:104D500074302EFE3099FDC2998E993099FDC2991A
:104D6000ED30E71075990D3099FDC29975990A30AB
:104D700099FDC29922E4907221F0A3F0907221E093
:104D8000FCA3E0FDC3EC9402505D904102E054218D
:104D9000600BE054FEF09072207404805C9041023D
:104DA000E030E0079072207402804E74002DF97498
:104DB000043CFA7B01C002C00178407C0E7D01D02A
:104DC00001D0027E007F40121ACD9041037440F062
:104DD000904102E020E1F9907222E02440F09072CC
:104DE00021E03400F08095123ED0E4907220F01261
:104DF0005FBEEF700890722004F07F00227F0122D6
:104E00008515227895E6F5157B201220FD12C00F3E
:104E1000E4908014F0908005E030E7F9E49080069B
:104E2000F090800BE030E6071221118D23800A12EA
:104E30002111ECC313ED13F523E5188523F0A485A8
:104E4000F024F525E5198523F0A425192524F5245A
:104E5000908005E030E0F9126107126107122236F6
:104E60007405122170E525F0E524F090800074E0CF
:104E7000F09080067404F0908005E030E0F9122193
:104E8000D11261078522157F03227895E6F5151268
:104E9000C015E5094508601EE50B7F0025E0FEE52D
:104EA00009FA79007B01C002C00178007C287D01ED
:104EB000D001D002801D78107C357A7279E67F703F
:104EC0001221B978807C357D017B017A73798C7EE3
:104ED000007F38121ACDE47895F67895E6FFC394F2
:104EE00007502BEF7F0025E0FEEF2400F974283EE9
:104EF000FA7B01C002C00178007C007D01D001D0A6
:104F0000027E0212209112610778950680CC7F0301
:104F100022909002E0FF907203E054604480F4FE1F
:104F2000EF5E909002F09090017401F090801CE090
:104F3000540FFFBF0FF6306D0312C01EE4908007C0
:104F4000F0904107E04420F0000000000000000065
:104F50000000306D0312C01E904107E054DFF09056
:104F60004200E0540360F8904200E030E01178988D
:104F7000E6B48005E4904100F078987640800478AB
:104F8000987680E4909001F09080077440F07F96CE
:104F90007E001262ED228D21E4FEF522908014E065
:104FA000F523E4F524EF30E003432410EF5401FD32
:104FB000C3EF9DFF908005E030E7F9AA07EAC395AB
:104FC00021504BEAC39410EA500625E02450800497
:104FD00025E02440908014F0C3E5219AFFBF01032F
:104FE000432420908006E524F0908005E030E0F92D
:104FF00090800BE05403600FE4FF12411EAE07EEF9
:10500000D3952240028E22E4F5240A0A80AF9080D4
:1050100014E523F0AF22227899A607EF1460461416
:10502000601524FE601E24FC604424F8604C24902B
:105030007060907268803130620590726C8003906D
:105040007274802490726CE0F8A3E0F9A3E0FAA3F4
:10505000E0FB907274123E6FC39BFFEE9AFEED99D7
:10506000FDEC988012907270123E6FFF801F90725C
:1050700070123E6F123F15FC8013306706123E6CB3
:10508000FF800A907270123E6F123F15FC788D12ED
:105090001957229073FFE06074E014F0E024F8F5F3
:1050A00082E43473F583E0FF6054AE811581A80675
:1050B000E6FE74E12FF8A606AE81A806E6FE74E0CF
:1050C0002FF8A6067581E0AE071FEE602F9073FEE5
:1050D000E0FE9073FCE0FCA3E02EF582E43CF58357
:1050E000E58224FFF582E58334FFF583E0AD810599
:1050F00081A805F69073FEE014F080CB05819073D3
:10510000FFE024F8F582E43473F583E4F0228F2283
:1051100090800BE030E5288515231220F612C00F91
:10512000E522605312209C1222AE904104E030E050
:10513000F912219D908005E030E0F9152280E1E52B
:105140002230E0037F89228515237895E6F51578CE
:1051500098E630E6047F0080027F80904104EFF003
:105160001220FB12C00FE4908014F0E52212226797
:10517000908016E020E0F99080007410F0852315EF
:105180007F0322E4907200F0907204F07895F608A4
:10519000F608F6D26EC26FC254C253C25290722049
:1051A000F0A3F0A3F0C256C257907210E0B4A50F5E
:1051B000A3E0B45A0A789AE64401F6D25B8002C2B0
:1051C0005BE4907202F090721CF0A3F0788076019C
:1051D000903C5074FFF0E4908036F0A374FFF0E44C
:1051E0009073FEF0FE7F04FD7B017A7379F812194B
:1051F000E5E49073FFF022908016E020E0F9904102
:1052000004E020E1F97A0079007E007F00123E7A06
:10521000900000121988555342537B007A0079851B
:10522000125A439000041219637B007A00798912A4
:105230005A439000081219637880E6B403047F0093
:1052400080027F0190000CEFF0740D123F2B904113
:1052500004E030E10C904102E030E0F21200AB805B
:10526000ED123E7A123F2122307021907218E0B484
:10527000B01A121F578003122065D8FBFF7899E6F9
:105280007C00B50707ECB506037F85227899E6FF19
:10529000789BE6FE5F6005EFF45E8033799CE778EB
:1052A000995660037F8522205F29909000E030E3CB
:1052B00010789AE620E71C4480F6789BE644F68056
:1052C0000E789AE630E70C547FF6789BE644F6F6C3
:1052D0007F86227F0022900010E0F521A3E0FF13DB
:1052E00013543FF522E05403F508A3E0F509A3E0C9
:1052F000F50BA3E0F50AE5216409702BE50B6407C3
:10530000450A603912239E122483501485152212F7
:10531000248A7B10AD0BAC0A12C00F852215801DAC
:105320007DFF12245880168515218522157B10AD2E
:105330000BAC0AAF09AE0812C00F85211512610728
:105340007F03228F23E47F01FEFDFC7889121E6E0D
:1053500070037F8422AF23E4FCFDFE12205C403109
:10536000904106E523F0E4904105F0904104E020EF
:10537000E1F97889305602802D12193EC007AF231B
:10538000AB07D007C3EF9BFFEE9400121FBE7F0355
:1053900022788CE6904106F0E4904105F0904104BB
:1053A000E020E1F9788912196F000000007F0322E4
:1053B00012637B12232C90727812238DFBC3121977
:1053C0000750037F8A2290727C1222CE12244B4017
:1053D0000A90721AE0B4B0037F89221222CB122302
:1053E0007B12240F2060099072701222CE12236764
:1053F00012C006AB07EB30E713788912196F000073
:105400000000EB30E0037F01227F03221222D9E566
:105410000D450C7004788476017F8922900280E02B
:10542000B4FF08A3E0B4FF037FC022900480E0F93A
:10543000A3E0FF900280E0FEA3E0FDEF6D7040FD71
:10544000EDC39F503D74822DF582E43404F583E072
:10545000FC74822DF582E43402F583E0FB1224D241
:105460008002C333D8FC5962041224D28002C333B1
:10547000D8FC5E6203EC6B60037FB0220D80C17FBD
:10548000B0227FA022AD07125FBEEF70069072209F
:10549000048051904102E030E506E054FEF080E7E0
:1054A000904103E0540FFFBF0807904102E020E75E
:1054B00011123E98904101E04401F0907220740274
:1054C0008022900E03E0B40316900E02E0B5050FA3
:1054D000900E01E0B40608900E00E0648060099030
:1054E00072207402F07F0022123E857F0122125248
:1054F00068EF70607899E66401705690721CE0FE67
:1055000054036401704BEE30E22390721DE0FEB450
:1055100001067402F07F8522EE6402703490721DE1
:105520007403F090721CE04402F07F862230600A1F
:1055300090721CE04402F07F032290721DE004F0A0
:10554000E0D39406400BE4F0789BE64401F67F85B7
:10555000227F0322221252688F20EF20E75A121E68
:105560004B9000037410F09000087402F090000A51
:10557000F0900012F07899E664017021305E1E9080
:10558000721CE030E0179000037408F090000AF0FD
:105590001220529000041219637F0C8018788D122B
:1055A000193E900004121963788D12193E90000C78
:1055B0001219637F14025343AF2022908007E0F555
:1055C0002290800AE0F52312605E7E027F007D005B
:1055D00012211F90800A7401F0E4F524E524126280
:1055E000E37895E6FD7F6E1242A9E52475F010A4DC
:1055F0002400F9740035F0A801FC7A6E79007F1060
:105600001221B90524E524C3940840D0908007E511
:1056100022F090800AE523F01261077F03221263D3
:105620007B12232C90727812238DFBC31219075022
:10563000037F8A2290727C1222CE12244B400A9061
:10564000721AE0B4B0037F89221222CB12237B129C
:10565000240F2060099072701222CE12236712C0AC
:1056600003AB07EB30E713788912196F00000000D5
:10567000EB30E0037F01227F03221222D97F8922AF
:105680008F1DEF75F004A42436F9747335F0FA7B9E
:1056900001C002C00178E27C727D01D001D002120B
:1056A00046C3851D1EE51E602775F004A4FFAEF0FD
:1056B0002432F974733EFA7B01C00174362FF974F9
:1056C000733EA801FC7D01D0011246C3151E80D592
:1056D00078367C737D017B017A7279E21246C322AF
:1056E000900010E07004A3E064027042900011E0AA
:1056F000FEA3E0FF7038EE7035125FEDEF602F9083
:105700000204E06029A3E0900204121E93701F902F
:105710000205E0900204121F81C002C001121F9115
:10572000D001D002121ACD900205E0FF80097E0060
:105730007F40121E4F7F4012534322EF25E025E0A9
:105740002436F582E43473F58374FFF0A3F0EF257B
:10575000E025E02438F582E43473F58374FFF01219
:10576000463F24E6F582E43472F583E412463C2495
:10577000E8F582E4347212463824EAF582E43472A1
:1057800012463824ECF582E4347212463812469FF1
:1057900022E490800AF07C021260D7908005E0300D
:1057A000E7F990800074FFF0908005E030E7F99011
:1057B00080007490F0E4A3F0FE9080047401F090F7
:1057C0008002E0900000F0E0B4FF1A0EBE06EAECA2
:1057D0005407FEC454F04E90900EF00CECC39409A4
:1057E00040B67411F0227F207A7379361246AD7F6D
:1057F000507A7279E61246AD7E007F387DFF7B01DC
:105800007A73798C1219E5E4F516E51625E025E0A2
:105810002439F582E43473F583E516F0124640121C
:10582000469FE51612464024E6F582E4347212469D
:10583000A60516E516B408D2227880E66401704801
:10584000904107E030E641907202E0FF603A9072CA
:1058500003E0FE541FFDC3EF9D907202F0600890BC
:105860004107E054BFF022909002E0FFEE54604404
:1058700080F4FEEF5EF0305A047F0180027F0090DA
:105880007201EFF0909001F022EF20E70890DFFC2A
:10589000E4936F604212C027EF4E7008909010742E
:1058A00004F080FE1246537408F090801674C0F025
:1058B000908016E020E0F91246826004E04401F096
:1058C0001246CA7004A3E060089090057490F080BE
:1058D000031246D61246B622EF0475F004A414252E
:1058E0001BF582F584851A83851A85E0F5F015820B
:1058F000E0FC1582E0FD1582E0FF1582E00586F0F0
:10590000158615821584E582B51BF1E00586F01534
:1059100084E5F0F01584ECF01584EDF01584EFF0DB
:10592000158622E4FF22E58124FED394E04042E57F
:10593000812421FF1F1F9073FFE024F8F582E434D7
:1059400073F583EFF09073FF8022EF60241F74E003
:105950002FF8E6FE9073FEE0FD9073FCE0FAA3E002
:105960002DF582E43AF583EEF09073FEE004F080CA
:10597000D92212637B900015E0FF12501712232CDE
:10598000788D1223E250037F8A22125EE912C0064C
:10599000AB07EB30E713788912196F00000000EBBA
:1059A00030E0037F01227F03221222D9E50D450C4E
:1059B0007004788476017F8922125FEDEF60329067
:1059C0000300E0602CA3E0900300121FCC121EA184
:1059D000701F900301E0900300121F98C002C001E5
:1059E000121F91D001D002121ACD900301E0FF8066
:1059F000097E007F22121E4F7F2212534322125F24
:105A0000EDEF6032900302E0602CA3E090030212FD
:105A10001FCC121EA1701F900303E0900302121FFF
:105A200098C002C001121F91D001D002121ACD906D
:105A30000303E0FF80097E007F24121E4F7F2412A3
:105A4000534322EB700CE7FF09E7FE09E7FD09E786
:105A5000FC2214701089828A83E0FFA3E0FEA3E099
:105A6000FDA3E0FC22BBFE0CE3FF09E3FE09E3FD1E
:105A700009E3FC2289828A83E493FF740193FE7414
:105A80000293FD740393FC228E1D8F1E8C1F8D20AC
:105A90009080157455F074AAF0EB4A602585208239
:105AA000851F83E0851E82851D83F0051EE51E701F
:105AB00002051D0520E5207002051FEB1B70DA1A98
:105AC00080D79080157477F0227E027F00121E4FDF
:105AD000E4FF7E02FDFC12205C4015788912193E1D
